{
  "contractName": "Todo",
  "abi": [
    {
      "inputs": [],
      "name": "taskCount",
      "outputs": [
        {
          "internalType": "uint256",
          "name": "",
          "type": "uint256"
        }
      ],
      "stateMutability": "view",
      "type": "function",
      "constant": true
    },
    {
      "inputs": [
        {
          "internalType": "string",
          "name": "_message",
          "type": "string"
        }
      ],
      "name": "addTodo",
      "outputs": [],
      "stateMutability": "nonpayable",
      "type": "function"
    },
    {
      "inputs": [
        {
          "internalType": "uint256",
          "name": "_id",
          "type": "uint256"
        },
        {
          "internalType": "string",
          "name": "_message",
          "type": "string"
        }
      ],
      "name": "updateTodo",
      "outputs": [],
      "stateMutability": "nonpayable",
      "type": "function"
    },
    {
      "inputs": [
        {
          "internalType": "uint256",
          "name": "_id",
          "type": "uint256"
        },
        {
          "internalType": "bool",
          "name": "_status",
          "type": "bool"
        }
      ],
      "name": "updateStatus",
      "outputs": [],
      "stateMutability": "nonpayable",
      "type": "function"
    },
    {
      "inputs": [],
      "name": "getTodos",
      "outputs": [
        {
          "components": [
            {
              "internalType": "uint256",
              "name": "id",
              "type": "uint256"
            },
            {
              "internalType": "string",
              "name": "message",
              "type": "string"
            },
            {
              "internalType": "bool",
              "name": "isDone",
              "type": "bool"
            }
          ],
          "internalType": "struct Todo.Task[]",
          "name": "",
          "type": "tuple[]"
        }
      ],
      "stateMutability": "nonpayable",
      "type": "function"
    }
  ],
  "bytecode": "0x60806040526000805534801561001457600080fd5b50610ab5806100246000396000f3fe608060405234801561001057600080fd5b50600436106100575760003560e01c8063387008c21461005c57806395ffebf514610078578063b6cb58a514610094578063c33926cb146100b2578063d534ee88146100d0575b600080fd5b6100766004803603810190610071919061054a565b6100ec565b005b610092600480360381019061008d91906106d0565b61016a565b005b61009c610251565b6040516100a99190610728565b60405180910390f35b6100ba610257565b6040516100c791906108fb565b60405180910390f35b6100ea60048036038101906100e5919061091d565b6103aa565b005b80600160003373ffffffffffffffffffffffffffffffffffffffff1673ffffffffffffffffffffffffffffffffffffffff168152602001908152602001600020838154811061013e5761013d610979565b5b906000526020600020906003020160020160006101000a81548160ff0219169083151502179055505050565b600160003373ffffffffffffffffffffffffffffffffffffffff1673ffffffffffffffffffffffffffffffffffffffff16815260200190815260200160002060405180606001604052806000808154809291906101c6906109d7565b91905055815260200183815260200160001515815250908060018154018082558091505060019003906000526020600020906003020160009091909190915060008201518160000155602082015181600101908051906020019061022b929190610425565b5060408201518160020160006101000a81548160ff021916908315150217905550505050565b60005481565b6060600160003373ffffffffffffffffffffffffffffffffffffffff1673ffffffffffffffffffffffffffffffffffffffff168152602001908152602001600020805480602002602001604051908101604052809291908181526020016000905b828210156103a15783829060005260206000209060030201604051806060016040529081600082015481526020016001820180546102f590610a4e565b80601f016020809104026020016040519081016040528092919081815260200182805461032190610a4e565b801561036e5780601f106103435761010080835404028352916020019161036e565b820191906000526020600020905b81548152906001019060200180831161035157829003601f168201915b505050505081526020016002820160009054906101000a900460ff161515151581525050815260200190600101906102b8565b50505050905090565b80600160003373ffffffffffffffffffffffffffffffffffffffff1673ffffffffffffffffffffffffffffffffffffffff16815260200190815260200160002083815481106103fc576103fb610979565b5b90600052602060002090600302016001019080519060200190610420929190610425565b505050565b82805461043190610a4e565b90600052602060002090601f016020900481019282610453576000855561049a565b82601f1061046c57805160ff191683800117855561049a565b8280016001018555821561049a579182015b8281111561049957825182559160200191906001019061047e565b5b5090506104a791906104ab565b5090565b5b808211156104c45760008160009055506001016104ac565b5090565b6000604051905090565b600080fd5b600080fd5b6000819050919050565b6104ef816104dc565b81146104fa57600080fd5b50565b60008135905061050c816104e6565b92915050565b60008115159050919050565b61052781610512565b811461053257600080fd5b50565b6000813590506105448161051e565b92915050565b60008060408385031215610561576105606104d2565b5b600061056f858286016104fd565b925050602061058085828601610535565b9150509250929050565b600080fd5b600080fd5b6000601f19601f8301169050919050565b7f4e487b7100000000000000000000000000000000000000000000000000000000600052604160045260246000fd5b6105dd82610594565b810181811067ffffffffffffffff821117156105fc576105fb6105a5565b5b80604052505050565b600061060f6104c8565b905061061b82826105d4565b919050565b600067ffffffffffffffff82111561063b5761063a6105a5565b5b61064482610594565b9050602081019050919050565b82818337600083830152505050565b600061067361066e84610620565b610605565b90508281526020810184848401111561068f5761068e61058f565b5b61069a848285610651565b509392505050565b600082601f8301126106b7576106b661058a565b5b81356106c7848260208601610660565b91505092915050565b6000602082840312156106e6576106e56104d2565b5b600082013567ffffffffffffffff811115610704576107036104d7565b5b610710848285016106a2565b91505092915050565b610722816104dc565b82525050565b600060208201905061073d6000830184610719565b92915050565b600081519050919050565b600082825260208201905092915050565b6000819050602082019050919050565b610778816104dc565b82525050565b600081519050919050565b600082825260208201905092915050565b60005b838110156107b857808201518184015260208101905061079d565b838111156107c7576000848401525b50505050565b60006107d88261077e565b6107e28185610789565b93506107f281856020860161079a565b6107fb81610594565b840191505092915050565b61080f81610512565b82525050565b600060608301600083015161082d600086018261076f565b506020830151848203602086015261084582826107cd565b915050604083015161085a6040860182610806565b508091505092915050565b60006108718383610815565b905092915050565b6000602082019050919050565b600061089182610743565b61089b818561074e565b9350836020820285016108ad8561075f565b8060005b858110156108e957848403895281516108ca8582610865565b94506108d583610879565b925060208a019950506001810190506108b1565b50829750879550505050505092915050565b600060208201905081810360008301526109158184610886565b905092915050565b60008060408385031215610934576109336104d2565b5b6000610942858286016104fd565b925050602083013567ffffffffffffffff811115610963576109626104d7565b5b61096f858286016106a2565b9150509250929050565b7f4e487b7100000000000000000000000000000000000000000000000000000000600052603260045260246000fd5b7f4e487b7100000000000000000000000000000000000000000000000000000000600052601160045260246000fd5b60006109e2826104dc565b91507fffffffffffffffffffffffffffffffffffffffffffffffffffffffffffffffff8203610a1457610a136109a8565b5b600182019050919050565b7f4e487b7100000000000000000000000000000000000000000000000000000000600052602260045260246000fd5b60006002820490506001821680610a6657607f821691505b602082108103610a7957610a78610a1f565b5b5091905056fea26469706673582212206bdde6e1b4cde60f83ed9762e49e7a42d1a50c6b3496e35e623ad118c0dcc09c64736f6c634300080d0033",
  "immutableReferences": {},
  "source": "// SPDX-License-Identifier: GPL-3.0\n\npragma solidity >=0.7.0 <0.9.0;\n\ncontract Todo {\n    uint public taskCount = 0;\n    struct Task {\n        uint id;\n        string message;\n        bool isDone;\n    }\n    mapping(address => Task[]) list;\n\n    function addTodo(string memory _message) public {\n        list[msg.sender].push(Task(taskCount++, _message, false));\n    }\n\n    function updateTodo(uint _id, string memory _message) public {\n        list[msg.sender][_id].message = _message;\n    }\n\n    function updateStatus(uint _id, bool _status) public {\n        list[msg.sender][_id].isDone = _status;\n    }\n\n    function getTodos() public returns (Task[] memory) {\n        return list[msg.sender];\n    }\n}\n",
  "sourcePath": "/home/gulshan/Desktop/projects/web3/todo/src/contracts/Todo.sol",
  "compiler": {
    "name": "solc",
    "version": "0.8.13+commit.abaa5c0e.Emscripten.clang"
  },
  "schemaVersion": "3.4.10",
  "updatedAt": "2022-11-17T04:57:53.902Z",
  "networkType": "ethereum",
  "devdoc": {
    "kind": "dev",
    "methods": {},
    "version": 1
  },
  "userdoc": {
    "kind": "user",
    "methods": {},
    "version": 1
  }
}