{
  "contractName": "Todo",
  "abi": [
    {
      "inputs": [],
      "name": "taskCount",
      "outputs": [
        {
          "internalType": "uint256",
          "name": "",
          "type": "uint256"
        }
      ],
      "stateMutability": "view",
      "type": "function",
      "constant": true
    },
    {
      "inputs": [
        {
          "internalType": "string",
          "name": "_message",
          "type": "string"
        }
      ],
      "name": "addTodo",
      "outputs": [],
      "stateMutability": "nonpayable",
      "type": "function"
    },
    {
      "inputs": [
        {
          "internalType": "uint256",
          "name": "_id",
          "type": "uint256"
        },
        {
          "internalType": "string",
          "name": "_message",
          "type": "string"
        }
      ],
      "name": "updateTodo",
      "outputs": [],
      "stateMutability": "nonpayable",
      "type": "function"
    },
    {
      "inputs": [
        {
          "internalType": "uint256",
          "name": "_id",
          "type": "uint256"
        },
        {
          "internalType": "bool",
          "name": "_status",
          "type": "bool"
        }
      ],
      "name": "updateStatus",
      "outputs": [],
      "stateMutability": "nonpayable",
      "type": "function"
    },
    {
      "inputs": [],
      "name": "getTodos",
      "outputs": [
        {
          "components": [
            {
              "internalType": "uint256",
              "name": "id",
              "type": "uint256"
            },
            {
              "internalType": "string",
              "name": "message",
              "type": "string"
            },
            {
              "internalType": "bool",
              "name": "isDone",
              "type": "bool"
            }
          ],
          "internalType": "struct Todo.Task[]",
          "name": "",
          "type": "tuple[]"
        }
      ],
      "stateMutability": "nonpayable",
      "type": "function"
    },
    {
      "inputs": [
        {
          "internalType": "uint256",
          "name": "_id",
          "type": "uint256"
        }
      ],
      "name": "deleteTodo",
      "outputs": [],
      "stateMutability": "nonpayable",
      "type": "function"
    }
  ],
  "bytecode": "0x60806040526000805534801561001457600080fd5b50610f7f806100246000396000f3fe608060405234801561001057600080fd5b50600436106100625760003560e01c8063387008c2146100675780636e3c67381461008357806395ffebf51461009f578063b6cb58a5146100bb578063c33926cb146100d9578063d534ee88146100f7575b600080fd5b610081600480360381019061007c91906108b1565b610113565b005b61009d600480360381019061009891906108f1565b610191565b005b6100b960048036038101906100b49190610a64565b610404565b005b6100c36104eb565b6040516100d09190610abc565b60405180910390f35b6100e16104f1565b6040516100ee9190610c8f565b60405180910390f35b610111600480360381019061010c9190610cb1565b610644565b005b80600160003373ffffffffffffffffffffffffffffffffffffffff1673ffffffffffffffffffffffffffffffffffffffff168152602001908152602001600020838154811061016557610164610d0d565b5b906000526020600020906003020160020160006101000a81548160ff0219169083151502179055505050565b6000600160003373ffffffffffffffffffffffffffffffffffffffff1673ffffffffffffffffffffffffffffffffffffffff16815260200190815260200160002080549050905080821061021a576040517f08c379a000000000000000000000000000000000000000000000000000000000815260040161021190610d99565b60405180910390fd5b60008290505b60018261022d9190610de8565b81101561036b57600160003373ffffffffffffffffffffffffffffffffffffffff1673ffffffffffffffffffffffffffffffffffffffff1681526020019081526020016000206001826102809190610e1c565b8154811061029157610290610d0d565b5b9060005260206000209060030201600160003373ffffffffffffffffffffffffffffffffffffffff1673ffffffffffffffffffffffffffffffffffffffff16815260200190815260200160002082815481106102f0576102ef610d0d565b5b906000526020600020906003020160008201548160000155600182018160010190805461031c90610ea1565b6103279291906106bf565b506002820160009054906101000a900460ff168160020160006101000a81548160ff021916908315150217905550905050808061036390610ed2565b915050610220565b50600160003373ffffffffffffffffffffffffffffffffffffffff1673ffffffffffffffffffffffffffffffffffffffff1681526020019081526020016000208054806103bb576103ba610f1a565b5b60019003818190600052602060002090600302016000808201600090556001820160006103e8919061074c565b6002820160006101000a81549060ff0219169055505090555050565b600160003373ffffffffffffffffffffffffffffffffffffffff1673ffffffffffffffffffffffffffffffffffffffff168152602001908152602001600020604051806060016040528060008081548092919061046090610ed2565b9190505581526020018381526020016000151581525090806001815401808255809150506001900390600052602060002090600302016000909190919091506000820151816000015560208201518160010190805190602001906104c592919061078c565b5060408201518160020160006101000a81548160ff021916908315150217905550505050565b60005481565b6060600160003373ffffffffffffffffffffffffffffffffffffffff1673ffffffffffffffffffffffffffffffffffffffff168152602001908152602001600020805480602002602001604051908101604052809291908181526020016000905b8282101561063b57838290600052602060002090600302016040518060600160405290816000820154815260200160018201805461058f90610ea1565b80601f01602080910402602001604051908101604052809291908181526020018280546105bb90610ea1565b80156106085780601f106105dd57610100808354040283529160200191610608565b820191906000526020600020905b8154815290600101906020018083116105eb57829003601f168201915b505050505081526020016002820160009054906101000a900460ff16151515158152505081526020019060010190610552565b50505050905090565b80600160003373ffffffffffffffffffffffffffffffffffffffff1673ffffffffffffffffffffffffffffffffffffffff168152602001908152602001600020838154811061069657610695610d0d565b5b906000526020600020906003020160010190805190602001906106ba92919061078c565b505050565b8280546106cb90610ea1565b90600052602060002090601f0160209004810192826106ed576000855561073b565b82601f106106fe578054855561073b565b8280016001018555821561073b57600052602060002091601f016020900482015b8281111561073a57825482559160010191906001019061071f565b5b5090506107489190610812565b5090565b50805461075890610ea1565b6000825580601f1061076a5750610789565b601f0160209004906000526020600020908101906107889190610812565b5b50565b82805461079890610ea1565b90600052602060002090601f0160209004810192826107ba5760008555610801565b82601f106107d357805160ff1916838001178555610801565b82800160010185558215610801579182015b828111156108005782518255916020019190600101906107e5565b5b50905061080e9190610812565b5090565b5b8082111561082b576000816000905550600101610813565b5090565b6000604051905090565b600080fd5b600080fd5b6000819050919050565b61085681610843565b811461086157600080fd5b50565b6000813590506108738161084d565b92915050565b60008115159050919050565b61088e81610879565b811461089957600080fd5b50565b6000813590506108ab81610885565b92915050565b600080604083850312156108c8576108c7610839565b5b60006108d685828601610864565b92505060206108e78582860161089c565b9150509250929050565b60006020828403121561090757610906610839565b5b600061091584828501610864565b91505092915050565b600080fd5b600080fd5b6000601f19601f8301169050919050565b7f4e487b7100000000000000000000000000000000000000000000000000000000600052604160045260246000fd5b61097182610928565b810181811067ffffffffffffffff821117156109905761098f610939565b5b80604052505050565b60006109a361082f565b90506109af8282610968565b919050565b600067ffffffffffffffff8211156109cf576109ce610939565b5b6109d882610928565b9050602081019050919050565b82818337600083830152505050565b6000610a07610a02846109b4565b610999565b905082815260208101848484011115610a2357610a22610923565b5b610a2e8482856109e5565b509392505050565b600082601f830112610a4b57610a4a61091e565b5b8135610a5b8482602086016109f4565b91505092915050565b600060208284031215610a7a57610a79610839565b5b600082013567ffffffffffffffff811115610a9857610a9761083e565b5b610aa484828501610a36565b91505092915050565b610ab681610843565b82525050565b6000602082019050610ad16000830184610aad565b92915050565b600081519050919050565b600082825260208201905092915050565b6000819050602082019050919050565b610b0c81610843565b82525050565b600081519050919050565b600082825260208201905092915050565b60005b83811015610b4c578082015181840152602081019050610b31565b83811115610b5b576000848401525b50505050565b6000610b6c82610b12565b610b768185610b1d565b9350610b86818560208601610b2e565b610b8f81610928565b840191505092915050565b610ba381610879565b82525050565b6000606083016000830151610bc16000860182610b03565b5060208301518482036020860152610bd98282610b61565b9150506040830151610bee6040860182610b9a565b508091505092915050565b6000610c058383610ba9565b905092915050565b6000602082019050919050565b6000610c2582610ad7565b610c2f8185610ae2565b935083602082028501610c4185610af3565b8060005b85811015610c7d5784840389528151610c5e8582610bf9565b9450610c6983610c0d565b925060208a01995050600181019050610c45565b50829750879550505050505092915050565b60006020820190508181036000830152610ca98184610c1a565b905092915050565b60008060408385031215610cc857610cc7610839565b5b6000610cd685828601610864565b925050602083013567ffffffffffffffff811115610cf757610cf661083e565b5b610d0385828601610a36565b9150509250929050565b7f4e487b7100000000000000000000000000000000000000000000000000000000600052603260045260246000fd5b600082825260208201905092915050565b7f506c6561736520656e74657220612076616c6964206964000000000000000000600082015250565b6000610d83601783610d3c565b9150610d8e82610d4d565b602082019050919050565b60006020820190508181036000830152610db281610d76565b9050919050565b7f4e487b7100000000000000000000000000000000000000000000000000000000600052601160045260246000fd5b6000610df382610843565b9150610dfe83610843565b925082821015610e1157610e10610db9565b5b828203905092915050565b6000610e2782610843565b9150610e3283610843565b9250827fffffffffffffffffffffffffffffffffffffffffffffffffffffffffffffffff03821115610e6757610e66610db9565b5b828201905092915050565b7f4e487b7100000000000000000000000000000000000000000000000000000000600052602260045260246000fd5b60006002820490506001821680610eb957607f821691505b602082108103610ecc57610ecb610e72565b5b50919050565b6000610edd82610843565b91507fffffffffffffffffffffffffffffffffffffffffffffffffffffffffffffffff8203610f0f57610f0e610db9565b5b600182019050919050565b7f4e487b7100000000000000000000000000000000000000000000000000000000600052603160045260246000fdfea2646970667358221220c7bbe241b4b3aa2633f6d6aead0a0125c3caeca6fc3deaa2282ecab51b78a9b364736f6c634300080d0033",
  "immutableReferences": {},
  "source": "// SPDX-License-Identifier: GPL-3.0\n\npragma solidity >=0.7.0 <0.9.0;\n\ncontract Todo {\n    uint public taskCount = 0;\n    struct Task {\n        uint id;\n        string message;\n        bool isDone;\n    }\n    mapping(address => Task[]) list;\n\n    function addTodo(string memory _message) public {\n        list[msg.sender].push(Task(taskCount++, _message, false));\n    }\n\n    function updateTodo(uint _id, string memory _message) public {\n        list[msg.sender][_id].message = _message;\n    }\n\n    function updateStatus(uint _id, bool _status) public {\n        list[msg.sender][_id].isDone = _status;\n    }\n\n    function getTodos() public returns (Task[] memory) {\n        return list[msg.sender];\n    }\n\n    function deleteTodo(uint _id) public {\n        uint n = list[msg.sender].length;\n        require(_id < n, \"Please enter a valid id\");\n        for (uint i = _id; i < n - 1; i++) {\n            list[msg.sender][i] = list[msg.sender][i + 1];\n        }\n        list[msg.sender].pop();\n    }\n}\n",
  "sourcePath": "/home/gulshan/Desktop/projects/web3/todo/src/contracts/Todo.sol",
  "compiler": {
    "name": "solc",
    "version": "0.8.13+commit.abaa5c0e.Emscripten.clang"
  },
  "schemaVersion": "3.4.10",
  "updatedAt": "2022-11-20T09:14:41.732Z",
  "networkType": "ethereum",
  "devdoc": {
    "kind": "dev",
    "methods": {},
    "version": 1
  },
  "userdoc": {
    "kind": "user",
    "methods": {},
    "version": 1
  }
}